:100000000C942A000C9434000C9434000C943400AA
:100010000C9434000C9434000C9434000C94340090
:100020000C9434000C9434000C9434000C94340080
:100030000C9434000C9434000C9434000C94340070
:100040000C9434000C9434000C9434000C94340060
:100050000C94340011241FBECFE5D8E0DEBFCDBF25
:100060000E94DD040C9424050C940000DF93CF93D0
:10007000CDB7DEB780E061E041E00E940E0180E094
:1000800060E041E00E940E0180E062E041E00E94F9
:100090000E0180E063E041E00E940E01CF91DF910C
:1000A0000895DF93CF93CDB7DEB780E060E041E005
:1000B0000E94590280E061E040E00E94590280E025
:1000C00062E040E00E94590280E063E041E00E946B
:1000D0005902CF91DF910895DF93CF93CDB7DEB76B
:1000E00080E060E040E00E94590280E061E040E092
:1000F0000E94590280E062E040E00E94590280E0E4
:1001000063E040E00E945902CF91DF910895DF93B0
:10011000CF93CDB7DEB780E060E040E00E945902A7
:1001200080E061E041E00E94590280E062E041E04D
:100130000E94590280E063E040E00E945902CF91A2
:10014000DF910895DF93CF93CDB7DEB780E060E015
:1001500041E00E94590280E061E040E00E945902C3
:1001600080E062E040E00E94590280E063E040E00D
:100170000E945902CF91DF910895DF93CF93CDB7BD
:10018000DEB780E060E040E00E94590280E061E07C
:1001900041E00E94590280E062E040E00E94590282
:1001A00080E063E040E00E945902CF91DF91089522
:1001B000DF93CF93CDB7DEB780E060E040E00E94F0
:1001C000590280E061E040E00E94590280E062E074
:1001D00040E00E94590280E063E041E00E94590241
:1001E000CF91DF910895DF93CF93CDB7DEB780E055
:1001F00060E040E00E94590280E061E040E00E943F
:10020000590280E062E041E00E94590280E063E030
:1002100040E00E945902CF91DF910895DF93CF9380
:10022000CDB7DEB728970FB6F894DEBF0FBECDBFAF
:100230008A836B834C8319828B81883008F0E5C0F8
:100240008C81882309F06FC08A81282F30E038879D
:100250002F838F8198858130910541F12F813885D9
:10026000223031052CF48F819885009761F058C0B9
:100270002F8138852230310561F18F819885833057
:100280009105D1F14DC0AAE3B0E0EAE3F0E080814E
:10029000482F8B81282F30E081E090E002C0880F4A
:1002A000991F2A95E2F7809584238C93A7E3B0E009
:1002B000E7E3F0E08081482F8B81282F30E081E058
:1002C00090E002C0880F991F2A95E2F78095842359
:1002D0008C93A4E3B0E0E4E3F0E08081482F8B81CD
:1002E000282F30E081E090E002C0880F991F2A9506
:1002F000E2F7809584238C93A1E3B0E0E1E3F0E0A2
:100300008081482F8B81282F30E081E090E0022E01
:1003100002C0880F991F0A94E2F7809584238C937A
:1003200081E0898374C08C81813009F06BC08A813F
:10033000282F30E03E832D838D819E818130910571
:1003400039F12D813E81223031052CF48D819E8141
:10035000009761F054C02D813E812230310551F16A
:100360008D819E8183309105B9F149C0AAE3B0E047
:10037000EAE3F0E08081482F8B81282F30E081E094
:1003800090E002C0880F991F2A95E2F7842B8C9386
:10039000A7E3B0E0E7E3F0E08081482F8B81282FCE
:1003A00030E081E090E002C0880F991F2A95E2F7C3
:1003B000842B8C93A4E3B0E0E4E3F0E08081482F49
:1003C0008B81282F30E081E090E002C0880F991FD8
:1003D0002A95E2F7842B8C93A1E3B0E0E1E3F0E00F
:1003E0008081482F8B81282F30E081E090E0022E21
:1003F00002C0880F991F0A94E2F7842B8C9381E046
:10040000898305C081E0898302C081E08983898175
:1004100028960FB6F894DEBF0FBECDBFCF91DF9107
:100420000895DF93CF9300D000D00F92CDB7DEB701
:100430008A836B8319828A81282F30E03D832C8345
:100440008C819D8181309105D1F02C813D812230BC
:1004500031052CF48C819D81009761F01FC02C81A7
:100460003D812230310581F08C819D818330910561
:1004700081F014C0EAE3F0E08B81808311C0E7E3F0
:10048000F0E08B8180830CC0E4E3F0E08B8180831B
:1004900007C0E1E3F0E08B81808302C081E08983C3
:1004A00089810F900F900F900F900F90CF91DF9157
:1004B0000895DF93CF93CDB7DEB728970FB6F894A2
:1004C000DEBF0FBECDBF8A836B834C8319828B81C5
:1004D000883008F0E5C08C81882309F06FC08A81DC
:1004E000282F30E038872F838F81988581309105C0
:1004F00041F12F813885223031052CF48F81988588
:10050000009761F058C02F8138852230310561F1A4
:100510008F81988583309105D1F14DC0ABE3B0E078
:10052000EBE3F0E08081482F8B81282F30E081E0E1
:1005300090E002C0880F991F2A95E2F780958423E6
:100540008C93A8E3B0E0E8E3F0E08081482F8B8152
:10055000282F30E081E090E002C0880F991F2A9593
:10056000E2F7809584238C93A5E3B0E0E5E3F0E027
:100570008081482F8B81282F30E081E090E002C0FD
:10058000880F991F2A95E2F7809584238C93A2E324
:10059000B0E0E2E3F0E08081482F8B81282F30E04B
:1005A00081E090E0022E02C0880F991F0A94E2F7C2
:1005B000809584238C9381E0898374C08C81813001
:1005C00009F06BC08A81282F30E03E832D838D8116
:1005D0009E818130910539F12D813E812230310596
:1005E0002CF48D819E81009761F054C02D813E8155
:1005F0002230310551F18D819E8183309105B9F111
:1006000049C0ABE3B0E0EBE3F0E08081482F8B81A1
:10061000282F30E081E090E002C0880F991F2A95D2
:10062000E2F7842B8C93A8E3B0E0E8E3F0E080816C
:10063000482F8B81282F30E081E090E002C0880FA6
:10064000991F2A95E2F7842B8C93A5E3B0E0E5E3AC
:10065000F0E08081482F8B81282F30E081E090E00E
:1006600002C0880F991F2A95E2F7842B8C93A2E38E
:10067000B0E0E2E3F0E08081482F8B81282F30E06A
:1006800081E090E0022E02C0880F991F0A94E2F7E1
:10069000842B8C9381E0898305C081E0898302C02B
:1006A00081E08983898128960FB6F894DEBF0FBE5A
:1006B000CDBFCF91DF910895DF93CF9300D000D0CD
:1006C0000F92CDB7DEB78A836B8319828A81282F78
:1006D00030E03D832C838C819D8181309105D1F068
:1006E0002C813D81223031052CF48C819D81009735
:1006F00061F01FC02C813D812230310581F08C8159
:100700009D818330910581F014C0EBE3F0E08B8193
:10071000808311C0E8E3F0E08B8180830CC0E5E3C7
:10072000F0E08B81808307C0E2E3F0E08B8180837F
:1007300002C081E0898389810F900F900F900F9004
:100740000F90CF91DF910895DF93CF93CDB7DEB7B0
:1007500027970FB6F894DEBF0FBECDBF8A836B8399
:100760005D834C8319828C819D81009709F478C048
:100770008B81883008F074C08A81282F30E03F8355
:100780002E834E815F814130510559F18E819F81C9
:100790008230910534F42E813F812115310569F0B5
:1007A0005CC04E815F814230510579F18E819F811D
:1007B0008330910509F43DC050C0E9E3F0E0808149
:1007C000282F30E08B81882F90E0A90102C0559539
:1007D00047958A95E2F7CA018170EC81FD8180839B
:1007E00041C0E6E3F0E08081282F30E08B81882F44
:1007F00090E0A90102C0559547958A95E2F7CA0194
:100800008170EC81FD8180832DC0E3E3F0E0808185
:10081000282F30E08B81882F90E0A90102C05595E8
:1008200047958A95E2F7CA018170EC81FD8180834A
:1008300019C0E0E3F0E08081282F30E08B81882F21
:1008400090E0A90102C0559547958A95E2F7CA0143
:100850008170EC81FD81808305C081E0898302C0C5
:1008600081E08983898127960FB6F894DEBF0FBE99
:10087000CDBFCF91DF910895DF93CF9300D00F923A
:10088000CDB7DEB789838981282F30E03B832A8367
:100890008A819B818330910569F12A813B812430D3
:1008A00031057CF48A819B8181309105E9F02A81B0
:1008B0003B8122303105DCF48A819B81009789F0ED
:1008C00024C02A813B8125303105D1F08A819B816A
:1008D0008530910594F02A813B812630310599F0CD
:1008E00014C00E94510011C00E9487000EC00E94D7
:1008F0006C000BC00E94A20008C00E94BD0005C091
:100900000E94D80002C00E94F3000F900F900F9039
:10091000CF91DF910895DF93CF930F92CDB7DEB7DC
:10092000198289818068898389818460898389812A
:1009300082608983E0E4F0E089818083E9E2F0E08D
:1009400083E38083AAE2B0E0EAE2F0E0808188609D
:100950008C93AAE2B0E0EAE2F0E0808180618C93BF
:100960000F90CF91DF910895DF93CF930F92CDB782
:10097000DEB78983EBE2F0E080818295869587700F
:10098000882F90E0817090700097A1F3ECE2F0E086
:10099000898180830F90CF91DF910895DF93CF936A
:1009A000CDB7DEB7EBE2F0E080818823DCF7ECE244
:1009B000F0E08081CF91DF910895DF93CF930F9284
:1009C000CDB7DEB70E948B0483E060E040E00E9478
:1009D0000E0183E061E041E00E940E010E943600BA
:1009E0000E94CE0489838981863421F480E00E94AC
:1009F0003C04F6CF8981823421F481E00E943C04DA
:100A0000EFCF8981833521F482E00E943C04E8CF56
:100A10008981893421F483E00E943C04E1CF8981FB
:100A20008A3421F484E00E943C04DACF898187343F
:100A300021F485E00E943C04D3CF8981883481F67B
:0C0A400086E00E943C04CCCFF894FFCF6D
:00000001FF
